:060000000A128A110C280F
:10000800FE00030EF0000A08F1000A128A111528F2
:100018000A128A110F28F401F50183010A128A11C4
:100028003B280130F4070318F50A0030F5070B11D7
:10003800223074067504031D222823282728A73098
:10004800831203138100233074067504031D2D28C1
:100058002E2834280130831203138606F401F50193
:1000680071088A00700E8300FE0E7E0E090083164A
:100078000313860183120313860183160313811267
:100088008111073081048312031381018B170B1729
:100098008B1602308312031386068230F300DD309C
:1000A800F200F20B5528F30B55285A284D280A124E
:0400B8008A110C2875
:02400E003A3F37
:00000001FF
