:060000000A128A110C280F
:10000800FE00030EF6000A08F7000A128A111728E4
:100018000A128A110F28F001F101F201F30183019C
:100028000A128A114F280130F2070318F30A003028
:10003800F3070130F0070318F10A0030F107013027
:100048007102013003197002031C2B282C28432845
:10005800FE30F4000130F50070087402F2007108F7
:10006800031C710A7502F300FE307006031D402858
:100078007103031D402841284328F001F10172084B
:100088008312031395008C1077088A00760E83007C
:10009800FE0E7E0E09008316031386018701831264
:1000A800031386018B170B17831603138C14831203
:1000B80003139101831603139201963083120313DD
:1000C8009500971217127830920403309204121593
:0C00D8000F3097046E280A128A110C28C1
:02400E003A3F37
:00000001FF
