:060000000A128A11DE2F36
:100E7A0001340034013400340334003402340034C1
:100E8A0006340034043400340C340034083400349A
:100E9A00093400347E088A007F0882000A128A1107
:100EAA004F270A128A118000840A04087D06031952
:100EBA000034FF0A0319FE0A532F8316031386010F
:100ECA008312031386017208F4007407203E84001B
:100EDA00831300088312031386000D30F600AF3027
:100EEA00F500B630F400F40B782FF50B782FF60BDB
:100EFA00782F00000130F2070318F30A0030F307D5
:100F0A00083072067304031D8B2F8C2F682F013053
:100F1A00F0070318F10A0030F10702307006710475
:100F2A00031D982F992FD82FC92F7208F400740720
:100F3A00203E8400831300088312031386000D30B9
:100F4A00F600AF30F500B630F400F40BAA2FF50B1B
:100F5A00AA2FF60BAA2F00000130F2020030031C60
:100F6A00F303F302720A031DBE2F730A031DBE2F79
:100F7A00BF2FC92F0830F2000030F3000130F70705
:100F8A000318F80A0030F807003078020330031912
:100F9A007702031CD12FD22F9A2F0130F70000308D
:100FAA00F800F001F101F201F301682F0A128A1127
:100FBA00002883133030FD000730FE003F30FF0069
:100FCA00203084000A128A1153270A128A110A123F
:100FDA008A113D270A128A11F7000A128A113E273E
:100FEA000A128A11F800F001F101F201F3018301FA
:060FFA000A128A11622FA9
:02400E003A3F37
:00000001FF
