:060000000A128A11F02F24
:100E6A0001340034831603138601FF30870083128E
:100E7A0003138601730886000830F2009D30F100E2
:100E8A000530F000F00B472FF10B472FF20B472FDD
:100E9A004E2F0310730DF300740DF40074037304E2
:100EAA00031D582F592F5D2F0130F3000030F40035
:100EBA0083120313071A622F632F3F2F73037404DD
:100ECA00031D682F692F8F2F0030F3000130F400C3
:100EDA008F2F7408F1007308F0000310F10CF00C66
:100EEA007008F3007108F400730886000830F200F5
:100EFA009D30F1000530F000F00B812FF10B812FAE
:100F0A00F20B812F882F73037404031D8D2F8E2FEC
:100F1A008F2F692F83120313071E942F952F6E2F7D
:100F2A00BA2F7408F1007308F0000310F10CF00CEA
:100F3A007008F3007108F400730886000830F200A4
:100F4A009D30F1000530F000F00BA92FF10BA92F0D
:100F5A00F20BA92FB02F73037404031DB52FB62FFC
:100F6A00BA2F0030F3000130F40083120313071A7A
:100F7A00BF2FC02F962F74037304031DC52FC62FCE
:100F8A00E62F0130F3000030F400E62F73088600E4
:100F9A000830F2009D30F1000530F000F00BD32F3D
:100FAA00F10BD32FF20BD32FDA2F0310730DF300AB
:100FBA00740DF40074037304031DE42FE52FE62F68
:100FCA00C62F83120313071EEB2FEC2FCB2F3F2FB5
:100FDA000A128A1100280A128A1135270A128A115E
:100FEA00F3000A128A1136270A128A11F4008301C1
:060FFA000A128A11372FD4
:02400E003A3F37
:00000001FF
