:060000000A128A11FC2F18
:100E6000622FC030831203138600872FF93083125C
:100E700003138600872FA430831203138600872F65
:100E8000B030831203138600872F99308312031327
:100E90008600872F9230831203138600872F8230BB
:100EA000831203138600872FF83083120313860002
:100EB000872F831203138601872F90308312031329
:100EC0008600872F7108003A0319672F872F700853
:100ED000003A0319312F013A0319362F033A031947
:100EE0003B2F013A0319402F073A0319452F013AC6
:100EF00003194A2F033A03194F2F013A0319542FAC
:100F00000F3A0319592F013A03195D2F872F080053
:100F1000F401F501831603138601FF308700831265
:100F2000031386017508F1007408F0000A128A1193
:100F300030270A128A1183120313871AA02FA12FB8
:100F4000C92F0130F4070318F50A0030F5070A30FD
:100F500074067504031DAD2FAE2FB02FF401F501FB
:100F60007508F1007408F0000A128A1130270A127D
:100F70008A11C32F4130F300EE30F200F20BBE2F86
:100F8000F30BBE2F000083120313871EC82FC92F37
:100F9000BA2F071BCC2FCD2F922F0130F402003037
:100FA000031CF503F502740A031DDA2F750A031DED
:100FB000DA2FDB2FDF2F0930F4000030F500750841
:100FC000F1007408F0000A128A1130270A128A11FF
:100FD000F22F4130F300EE30F200F20BED2FF30B65
:100FE000ED2F000083120313071FF72FF82FE92FAF
:100FF000922F0A128A11002883010A128A11882F5F
:02400E003A3F37
:00000001FF
