:060000000A128A11EA2F2A
:100C80008312031387135330F400F40B452E8312A1
:100C9000031387175330F400F40B4C2E08007E0822
:100CA0008A007F0882000A128A114F260A128A11CE
:100CB0008000840A04087D0603190034FF0A031922
:100CC000FE0A532E803400348134003482340034E0
:100CD0008334003484340034853400348634003462
:100CE0008734003488340034893400348A34003442
:100CF0008B3400348C3400348D3400348E34003422
:100D00008F34003483160313860187018312031383
:100D1000860187018230F600DD30F500F50B8E2E5E
:100D2000F60B8E2E932E8312031387128717A6308D
:100D3000F500F50B992E0000303083120313860066
:100D40002130F6007630F500F50BA42EF60BA42E1C
:100D500000000A128A1140260A128A1130308312CA
:100D6000031386002130F6007630F500F50BB62E21
:100D7000F60BB62E00000A128A1140260A128A11BA
:100D800030308312031386002130F6007630F500F0
:100D9000F50BC82EF60BC82E00000A128A11402649
:100DA0000A128A113830831203138600A630F50028
:100DB000F50BD82E00000A128A1140260A128A1159
:100DC0000C30831203138600A630F500F50BE62ED7
:100DD00000000A128A1140260A128A118312031394
:100DE0008601A630F500F50BF32E00000A128A11D9
:100DF00040260A128A11831203138712803086005C
:100E0000A630F500F50B022F00000A128A114026C9
:100E10000A128A11F001F1018312031387122008CC
:100E200086005330F500F50B132F0A128A11402665
:100E30000A128A118312031387127008F5007507CE
:100E4000203E84008313000886005330F500F50B24
:100E5000272F0A128A1140260A128A1183120313BD
:100E60008716F33086005330F500F50B352F0A1244
:100E70008A1140260A128A110330F7008A30F600E0
:100E80005530F500F50B422FF60B422FF70B422F92
:100E9000492F8312031387127008F5007507203E4F
:100EA00084008313000886005330F500F50B562F9D
:100EB0000A128A1140260A128A1183120313871616
:100EC000203086005330F500F50B642F0A128A118A
:100ED00040260A128A110730F6007D30F500F50B26
:100EE0006F2FF60B6F2F0130F0070318F10A003057
:100EF000F107103070067104031D7F2F802F1A2F09
:100F0000E02F8312031387127008F5007507203E47
:100F100084008313000886005330F500F50B8E2FF4
:100F20000A128A1140260A128A11831203138716A5
:100F3000F33086005330F500F50B9C2F0A128A110E
:100F400040260A128A110330F7008A30F600553025
:100F5000F500F50BA92FF60BA92FF70BA92FB02F32
:100F60008312031387127008F5007507203E840072
:100F70008313000886005330F500F50BBD2F0A12CD
:100F80008A1140260A128A11831203138716203011
:100F900086005330F500F50BCB2F0A128A1140263C
:100FA0000A128A110730F6007D30F500F50BD62FB6
:100FB000F60BD62F0130F0020030031CF103F102D2
:100FC00070087104031DE52FE62F812F1A2F0A12D6
:100FD0008A11002883134030FD000630FE00623085
:100FE000FF00203084000A128A1153260A128A1147
:100FF000F001F101F201F30183010A128A11822E3C
:02400E003A3F37
:00000001FF
