:060000000A128A11F82F1C
:100EA8008312031387135330F400F40B592F831262
:100EB800031387175330F400F40B602F08008316D0
:100EC8000313860187018230F600DD30F500F50B4B
:100ED8006B2FF60B6B2F702F831203138712871754
:100EE800A630F500F50B762F00003030831203137F
:100EF80086002130F6007630F500F50B812FF60BD1
:100F0800812F00000A128A1154270A128A113030E0
:100F18008312031386002130F6007630F500F50BB6
:100F2800932FF60B932F00000A128A1154270A12E6
:100F38008A1130308312031386002130F600763090
:100F4800F500F50BA52FF60BA52F00000A128A1144
:100F580054270A128A113830831203138600A630E8
:100F6800F500F50BB52F00000A128A1154270A1252
:100F78008A110F30831203138600A630F500F50B93
:100F8800C32F00000A128A1154270A128A118312E9
:100F980003138601A630F500F50BD02F00000A12C6
:100FA8008A1154270A128A11883083120313860083
:100FB800A630F500F50BDE2F00000A128A1154271F
:100FC8000A128A118312031387163C3086005330A5
:100FD800F500F50BED2F0A128A1154270A128A110F
:100FE800F42F0A128A110028F001F101F201F3012D
:080FF80083010A128A11632F24
:02400E003A3F37
:00000001FF
