:060000000A128A11EA2F2A
:100ADC007E088A007F0882000A128A116E250A128B
:100AEC008A118000840A04087D0603190034FF0A69
:100AFC000319FE0A722D3F340034063400345B3483
:100B0C0000344F340034663400346D3400347D349A
:100B1C00003407340034FF3400346F340034700870
:100B2C00710403199A2D9B2DCA2DF501F50AA92DD7
:100B3C0001300310F00DF10DFF3E031D9F2D013010
:100B4C00F4007408F507F11FAC2DAD2D9E2D710826
:100B5C007302031DB32D70087202031CB62DB72D42
:100B6C00BD2D7008F2027108031CF303F30201306F
:100B7C000310F10CF00CFF3E031DBE2D0130F502ED
:100B8C00031DC92DCA2DAD2D7308F1007208F0009C
:100B9C000800F501F601700871040319D62DD72D44
:100BAC000E2EF701F70AE52D01300310F00DF10DB3
:100BBC00FF3E031DDB2D0130F4007408F707F11F15
:100BCC00E82DE92DDA2D01300310F50DF60DFF3E61
:100BDC00031DEA2D71087302031DF62D70087202B5
:100BEC00031CF92DFA2D012E7008F2027108031C5A
:100BFC00F303F302751401300310F10CF00CFF3EFB
:100C0C00031D022E0130F702031D0D2E0E2EE92DB1
:100C1C007608F1007508F0000800F601F31F172E96
:100C2C00182E1F2EF209F309F20A0319F30AF60122
:100C3C00F60AF11F222E232E282EF009F109F00AB4
:100C4C000319F10A7008710403192D2E2E2E5D2E36
:100C5C00F501F50A3C2E01300310F00DF10DFF3EAD
:100C6C00031D322E0130F4007408F507F11F3F2EDE
:100C7C00402E312E71087302031D462E700872022D
:100C8C00031C492E4A2E502E7008F2027108031CC8
:100C9C00F303F30201300310F10CF00CFF3E031DC3
:100CAC00512E0130F502031D5C2E5D2E402E760870
:100CBC000319612E622E672EF209F309F20A031949
:100CCC00F30A7308F1007208F0000800F601F11F36
:100CDC00702E712E782EF009F109F00A0319F10A21
:100CEC00F601F60AF31F7B2E7C2E852EF209F309F2
:100CFC00F20A0319F30A0130F4007408F606F7013E
:100D0C00F8017008710403198C2E8D2EC42EF50178
:100D1C00F50A9B2E01300310F00DF10DFF3E031D63
:100D2C00912E0130F4007408F507F11F9E2E9F2EB2
:100D3C00902E01300310F70DF80DFF3E031DA02E71
:100D4C0071087302031DAC2E70087202031CAF2EC7
:100D5C00B02EB72E7008F2027108031CF303F302D5
:100D6C00771401300310F10CF00CFF3E031DB82E6C
:100D7C000130F502031DC32EC42E9F2E76080319D5
:100D8C00C82EC92ECE2EF709F809F70A0319F80A4E
:100D9C007808F1007708F000080083160313870128
:100DAC00860183120313870186010A30F00000309C
:100DBC00F1007C08F3007B08F2000A128A1113265A
:100DCC000A128A11710883120313C3007008C2003F
:100DDC000A30F0000030F1007C08F3007B08F200D0
:100DEC000A128A116C260A128A11710883120313D3
:100DFC00C1007008C0000A30F0000030F10041085A
:100E0C00F3004008F2000A128A1195250A128A1181
:100E1C00710883120313BF007008BE000A30F00083
:100E2C000030F1004108F3004008F2000A128A1168
:100E3C00CF250A128A11710883120313BD007008A2
:100E4C00BC000A30F0000030F1003D08F3003C0813
:100E5C00F2000A128A1195250A128A11710883125E
:100E6C000313BB007008BA000A30F0000030F10028
:100E7C003D08F3003C08F2000A128A11CF250A1231
:100E8C008A11710883120313B9007008B8000A3074
:100E9C00F0000030F1003908F3003808F2000A12B3
:100EAC008A1195250A128A11710883120313B7004F
:100EBC007008B6000A30F0000030F1003908F30079
:100ECC003808F2000A128A11CF250A128A11710809
:100EDC0083120313B5007008B4003608F9007907C3
:100EEC00203E840083130008860007142130FA008A
:100EFC007630F900F90B802FFA0B802F000083124B
:100F0C00031307103A08F9007907203E8400831375
:100F1C000008860087142130FA007630F900F90BAE
:100F2C00952FFA0B952F00008312031387103E08A0
:100F3C00F9007907203E840083130008860007150A
:100F4C002130FA007630F900F90BAA2FFA0BAA2FF0
:100F5C0000008312031307114208F9007907203EA1
:100F6C00840083130008860087152130FA00763040
:100F7C00F900F90BBF2FFA0BBF2F000083120313DC
:100F8C0087114508803AFF0080307F02031DD02F67
:100F9C000A304402031CD32FD42FDE2F0130FB0761
:100FAC000318FC0A0030FC0783120313C401C501AB
:100FBC00013083120313C4070318C50A0030C50798
:100FCC00DB2E0A128A11002883133430FD00053001
:100FDC00FE008130FF00203084000A128A11722535
:100FEC000A128A11C401C501FB01FC0183010A121A
:040FFC008A11D32E55
:02400E00723FFF
:00000001FF
